:100000000AC011C010C00FC00EC00DC00CC00BC084
:100010000AC009C008C011271FBFCFE5D0E0DEBF6E
:10002000CDBF1BD040C0ECCF41E04DBD5DB55860A9
:100030005DBD5DB55DBD5DB550645DBD4EBD5EB57C
:100040005EBD5EB55EBD5EB5506C5EBD41B912B9B8
:1000500017BD16BD15BD14BD0895E6DF40E050E0A4
:1000600060E570E08FEF90E019C04A30510719F059
:100070004F30510719F477BD66BD02C097BD86BDEC
:10008000EFE1FEE4E150F040E9F700C000004F5F0F
:100090005F4F4031510714F040E050E00199E5CF47
:0A00A00077BD66BDF9CFF894FFCFDD
:00000001FF
