:100000000AC019C018C017C016C015C014C013C04C
:1000100012C011C041C011271FBFCFE5D0E0DEBF25
:10002000CDBF20E0A0E4B0E001C01D93A634B2072C
:10003000E1F7BAD0C4C0E4CF48ED4CBF16BF789406
:1000400049E44DBD41EA4EBD4CB54F734CBD41E056
:1000500041B943B912B915BD14BD45B74D7F45BF70
:10006000D898D99A4CB3487F4CBBBA9A4FEA4DBB4B
:10007000EE9A0895E5E4F0E04EE14083E4E4F0E038
:1000800048E240830895E5E4F0E04DE74083E4E48E
:10009000F0E047E8408308951F930F930FB70F9345
:1000A00010E04F935F936F937F938F939F93AF93E2
:1000B000BF93EF93FF93E2E4F0E04081443008F413
:1000C00061C0019B1BC0E1E4F0E040814F5F4083D1
:1000D00040814D3330F0A0E4B0E04C914F5F4C9341
:1000E0001083E0E4F0E040814F3021F0493161F0CD
:1000F0004A3011F4BFDF09C0C6DF07C0BBDFE0E450
:10010000F0E01083E1E4F0E0108349B3423E60F098
:1001100046B557B54550510B57BD46BDE3E4F0E039
:1001200040814F5F40832AC059B3E5E4F0E040814D
:100130005417A0F4408169B350E0461B510B4F3176
:1001400051072CF046B557B5465F5F4F04C046B522
:1001500057B54F5F5F4F57BD46BD0DC059B3E4E47F
:10016000F0E04081451738F446B557B54150510B82
:1001700057BD46BD03C0E3E4F0E01083E2E4F0E0E5
:10018000108303C040814F5F4083FF91EF91BF9187
:10019000AF919F918F917F916F915F914F910F914F
:1001A0000FBF0F911F91189547DFE3E4F0E0408106
:1001B0004233E8F317BD16BD80E090E00895F8944F
:0201C000FFCF6F
:00000001FF
