:100000000AC019C018C017C016C015C014C013C04C
:1000100012C011C037C011271FBFCFE5D0E0DEBF2F
:10002000CDBF20E0A0E4B0E001C01D93A634B2072C
:10003000E1F7A7D0AFC0E4CFE5E4F0E01083789417
:10004000E4E4F0E04EE14083E3E4F0E048E24083A2
:1000500049E44DBD41EA4EBD4CB54F734CBD41E046
:1000600041B943B912B915BD14BD45B74D7F45BF60
:10007000D898D99A4CB3487F4CBBBA9A4DEA4DBB3D
:10008000EE9A08951F930F930FB70F9310E04F93BD
:100090005F936F93EF93FF93019B2FC0E0E4F0E039
:1000A0004081EF5FFF4F5081E150F040433E5D41A2
:1000B00028F0E2E4F0E040814F5F4083E2E4F0E0CA
:1000C0004081443049F018F4423071F405C04630A4
:1000D00019F04F3F49F41BC0E4E4F0E04EE14083E7
:1000E000E3E4F0E048E207C0E4E4F0E044E6408303
:1000F000E3E4F0E04EE640830BC0E4E4F0E04EE1E0
:100100004083E3E4F0E048E24083E2E4F0E010837F
:1001100049B3413A40F017BD16BDE5E4F0E0408137
:100120004F5F408324C059B3E4E4F0E040815417AA
:1001300090F4408169B350E0461B510B4F31510799
:100140002CF046B557B5465F5F4F0FC046B557B563
:100150004F5F5F4F0AC059B3E3E4F0E040814517B9
:1001600030F446B557B54250510B57BD46BDFF91CF
:10017000EF916F915F914F910F910FBF0F911F9171
:1001800018955ADFE5E4F0E040814423E9F380E08C
:0801900090E00895F894FFCF00
:00000001FF
