:100000000AC019C018C017C016C015C014C013C04C
:1000100012C011C03AC011271FBFCFE5D0E0DEBF2C
:10002000CDBF20E0A0E4B0E001C01D93A634B2072C
:10003000E1F7C6D0D0C0E4CF48ED4CBF16BFE5E431
:10004000F0E010837894E1E4F0E04EE14083E0E4F6
:10005000F0E048E2408349E44DBD41EA4EBD4CB575
:100060004F734CBD41E041B943B912B915BD14BD40
:1000700045B74D7F45BFD898D99A4CB3487F4CBB04
:10008000BA9A4FEA4DBBEE9A08951F930F930FB79C
:100090000F9310E04F935F936F93AF93BF93EF93E2
:1000A000FF93E3E4F0E04081443008F47AC0019B20
:1000B0002DC0E2E4F0E040814F5F4083408145364F
:1000C00030F0A4E4B0E04C914F5F4C931083E4E433
:1000D000F0E04081443049F018F4423071F405C03A
:1000E000463019F0443649F41EC0E1E4F0E04EE138
:1000F0004083E0E4F0E048E207C0E1E4F0E04DE7EF
:100100004083E0E4F0E047E840830EC0E1E4F0E043
:100110004EE14083E0E4F0E048E24083E4E4F0E0D4
:100120001083E2E4F0E0108349B3423E60F046B54C
:1001300057B54150510B57BD46BDE5E4F0E0408155
:100140004F5F40832AC059B3E1E4F0E04081541787
:10015000A0F4408169B350E0461B510B4F31510769
:100160002CF046B557B5465F5F4F04C046B557B54E
:100170004F5F5F4F57BD46BD0DC059B3E0E4F0E09F
:100180004081451738F446B557B54150510B57BD1E
:1001900046BD03C0E5E4F0E01083E3E4F0E0108343
:1001A00003C040814F5F4083FF91EF91BF91AF91BA
:1001B0006F915F914F910F910FBF0F911F91189504
:1001C0003BDFE5E4F0E040814233E8F317BD16BDC4
:0A01D00080E090E00895F894FFCF5E
:00000001FF
