:100000000AC011C010C00FC00EC00DC00CC00BC084
:100010000AC009C008C011271FBFCFE5D0E0DEBF6E
:10002000CDBF16D03CC0ECCF41E04DBD5DB55860B2
:100030005DBD5DB55DBD5DB550645DBD4EBD5EB57C
:100040005EBD5EB55EBD5EB5506C5EBD41B90895E6
:10005000EBDF17BD16BD15BD14BD1EC057BD46BD97
:1000600067E873E161507040E9F700C000004B5F42
:100070005F4F4F3F510794F34FEF50E057BD46BDE0
:1000800067E873E161507040E9F700C00000455037
:10009000510B4931510791F749E150E0EACFF8940B
:0200A000FFCF90
:00000001FF
