:100000000AC019C018C017C016C015C014C013C04C
:1000100012C011C037C011271FBFCFE5D0E0DEBF2F
:10002000CDBF20E0A0E4B0E001C01D93A334B2072F
:10003000E1F77BD083C0E4CFE2E4F0E01083789472
:10004000E1E4F0E04EE14083E0E4F0E048E24083A8
:1000500049E44DBD41EA4EBD4CB54F734CBD41E046
:1000600041B943B912B915BD14BD45B74D7F45BF60
:10007000D898D99A4CB3487F4CBBBA9A4DEA4DBB3D
:10008000EE9A08951F930F930FB70F9310E04F93BD
:100090005F936F93EF93FF93E1E4F0E0019B06C061
:1000A00044E64083E0E4F0E04EE605C04EE14083E4
:1000B000E0E4F0E048E2408349B3413A40F017BD44
:1000C00016BDE2E4F0E040814F5F408324C059B3A5
:1000D000E1E4F0E04081541790F4408169B350E0CE
:1000E000461B510B4F3151072CF046B557B5465FB3
:1000F0005F4F0FC046B557B54F5F5F4F0AC059B34A
:10010000E0E4F0E04081451730F446B557B5425081
:10011000510B57BD46BDFF91EF916F915F914F918C
:100120000F910FBF0F911F91189586DFE2E4F0E069
:1001300040814423E9F380E090E00895F894FFCFF4
:00000001FF
