:100000000AC019C018C017C016C015C014C013C04C
:1000100012C011C041C011271FBFCFE5D0E0DEBF25
:10002000CDBF20E0A0E4B0E001C01D93A734B2072B
:10003000E1F7D7D0E1C0E4CF48ED4CBF16BF7894CC
:1000400049E44DBD41EA4EBD4CB54F734CBD41E056
:1000500041B943B912B915BD14BD45B74D7F45BF70
:10006000D898D99A4CB3487F4CBBBA9A4FEA4DBB4B
:10007000EE9A0895E6E4F0E04EE14083E5E4F0E036
:1000800048E240830895E6E4F0E04DE74083E5E48C
:10009000F0E047E8408308951F930F930FB70F9345
:1000A00010E04F935F936F937F938F939F93AF93E2
:1000B000BF93EF93FF93E3E4F0E04081443008F412
:1000C0007EC0019B35C0E2E4F0E040814F5F408399
:1000D00040814D3330F0A1E4B0E04C914F5F4C9340
:1000E0001083E1E4F0E04081493030F4473058F4C7
:1000F00043504230D8F407C0443161F0493181F0B7
:100100004F30A1F407C0E0E4F0E0408141130EC09D
:10011000B1DF18C0E0E4F0E040814113F9CF06C040
:100120001083E0E4F0E041E040830CC0ACDF0AC0A3
:10013000A1DFE1E4F0E01083E2E4F0E01083E0E42A
:10014000F0E0108349B3423E60F046B557B54550E4
:10015000510B57BD46BDE4E4F0E040814F5F408362
:100160002AC059B3E6E4F0E040815417A0F440817E
:1001700069B350E0461B510B4F3151072CF046B587
:1001800057B5465F5F4F04C046B557B54F5F5F4FE9
:1001900057BD46BD0DC059B3E5E4F0E040814517B9
:1001A00038F446B557B54150510B57BD46BD03C055
:1001B000E4E4F0E01083E3E4F0E0108303C0408166
:1001C0004F5F4083FF91EF91BF91AF919F918F91CE
:1001D0007F916F915F914F910F910FBF0F911F9181
:1001E00018952ADFE4E4F0E040814233E8F317BDDC
:0C01F00016BD80E090E00895F894FFCF69
:00000001FF
